:100000000C947A010C94AB010C94AB010C94AB01F1
:100010000C94AB010C94AB010C94AB010C94AB01B0
:100020000C94AB010C94AB010C94AB010C94AB01A0
:100030000C94AB010C94AB010C94AB010C94AB0190
:100040000C94AB010C94AB0E0C94AB010C94AB0173
:100050000C94AB010C94AB010C94AB010C94951077
:100060000C94AB010C94CD140C94BD150C94AB0105
:100070000C94AB010C94AB010C94AB010C94AB0150
:100080000C94D90E0C94AB010C94AB010C94AB0105
:100090000C9401150C94FC150C94AB010C94AB0161
:1000A0000C94AB010C94AB010C94070F0C94AB01B6
:1000B0000C94AB010C94AB010C94AB010C94350F78
:1000C0000C94AB010C94AB010C94AB010C94351562
:1000D0000C943B160C94AB010C9469150C947A1695
:1000E0000C94AB017213751368136C13AC13791372
:1000F0007D13831387138B13911395139913AC13EB
:100100009F13A313A7130000090A02080B0C0D0785
:1001100006030401000000000000000000000000D1
:1001200000000000000000000000000000000000CF
:10013000000011100F00000000000000000000008F
:10014000000000000000000000000000010210207C
:1001500020080810204010204080020102010804FD
:100160000201010204081020408080402010080491
:1001700002018004020180402010080402010804EA
:10018000020101020408102040800102040810202E
:100190004080050505050705080808080202020257
:1001A0000A0A080804040404010101010101010113
:1001B0000303030303030303040707070C0C0C0CDE
:1001C0000C0C0C0C020202020606060606060606C7
:1001D0000B0B0B0B0B0B0B0B000022002500280058
:1001E0002B002E003100340002010000050108013F
:1001F0000B0100002100240027002A002D00300000
:10020000330001010000040107010A010C94390DBB
:100210000C941C140C948B130C9459030C94F90239
:100220000C946B140C9455030C9479130C94A71331
:100230000C94EC030C949B080C94CF010C946C135D
:100240000C94A7070C9446030C9449030C943D03AB
:100250000C9475130C9495130C9440030C9449144E
:100260000C949F130C9455080C9476140C947F08EE
:100270000C9477070C9418020C9452030C945C03B2
:100280000C9418040C945F030C9483130C941E0BB1
:100290000C947D130C94F3020C94AC130C94D605BF
:1002A0000C9491130C9487130C9472130C94AD015D
:1002B0000C947D180C9443030C9488060C941B0238
:1002C0000C9468130C942E140C949C150C944C03F1
:1002D0000C943A170C9415020C94F6020C946403D7
:1002E0000C944F030C9499130C94C2040C94A31314
:1002F000390D3A1711241FBECFEFD1E2DEBFCDBFBB
:1003000000E00CBF14E0A0E0B2E0E8E5F5E300E0B7
:100310000BBF02C007900D92A030B107D9F71CE0C7
:10032000A0E0B4E001C01D92A932B107E1F712E0EC
:10033000C4EFD2E000E006C022970109FE010BBF26
:100340000E948E1AC03FD10780E00807A9F70E94DB
:1003500070180C94AA1A0C940000FC01DB01828135
:100360008C93838111968C931197848112968C9330
:100370001297858113968C931397868114968C938C
:100380001497878115968C931597808516968C9374
:100390001697818517968C9388E090E00895FC016C
:1003A000DB014C9150E060E070E042835383648352
:1003B000758311968C911197582B428353836483D4
:1003C000758312968C911297682B428353836483B2
:1003D000758313968C911397782B42835383648390
:1003E000758314964C91149750E060E070E046835A
:1003F00057836087718715968C911597582B468384
:1004000057836087718716968C911697682B468361
:1004100057836087718717968C91782B4683578313
:100420006087718788E090E008958AE092E00895FF
:1004300088E192E008956F927F928F929F92AF929F
:10044000BF92CF92DF92EF92FF920F931F93CF93C1
:10045000DF93FC01DB018C9190E093838283119602
:100460002C911197922B9383828312964D915D91DB
:100470006D917C9115975D0186E0A80EB11C8A01F3
:100480009B010A5F1F4F2F4F3F4F6501CA1ADB0ABE
:10049000E12CF12CC016D106E206F30640F4E5018A
:1004A000F9905E01CE010297EC01F882EECFED01EA
:1004B000C40FD51F1D82CD01059695838483ED0160
:1004C000C40FD51FCE80DF80E884F984465F5F4F7C
:1004D0003D01640E751E8A01222717FD2095322FDB
:1004E0000C0D1D1D2E1D3F1D43018A1A9B0AA12CB8
:1004F000B12C80169106A206B30640F4E30169917F
:100500003E01CE010297EC016883EECFC40ED51EEA
:100510009D012C0D3D1DC9010197EC011882415030
:1005200051094A0F5B1F57834683E90108811981EE
:100530002A813B81D4E0CD0ED11C3D016C0C7D1C89
:10054000A601662757FD6095762F400F511F621F49
:10055000731F43018A1A9B0AA12CB12C841695069D
:10056000A606B70640F4E301F9903E01CE010297DA
:10057000EC01F882EECF0C0D1D1D9D01200F311FE7
:10058000C9010197EC011882D1E0CD1AD108CA0E39
:10059000DB1ED186C086D90111968C9111971296D7
:1005A0004C91129750E060E070E0BA015527442763
:1005B000582B8C91482B13968C91782B428753871C
:1005C00064877587C8010496DF91CF911F910F91C1
:1005D000FF90EF90DF90CF90BF90AF909F908F9063
:1005E0007F906F90089589E392E0089582E592E00C
:1005F0000895AF92BF92CF92DF92EF92FF921F9336
:10060000CF93DF939C01FB018081D90112968C93DB
:1006100081819281A381B4815B01C5E0AC0EB11CE4
:10062000AC01BD014B5F5F4F6F4F7F4F6501CE1A2D
:10063000DF0AE12CF12CC416D506E606F70650F4C5
:10064000E501D9905E017E01D2E0ED1AF108E701E3
:10065000D882ECCFEF01C80FD91F1C823496E90174
:10066000FC83EB830596DF91CF911F91FF90EF9074
:10067000DF90CF90BF90AF90089583E792E0089508
:1006800086E892E0089585E793E0089587EA92E08E
:10069000089588EC92E008958EED92E008958FEF32
:1006A00092E0089583E193E00895FC0186A197A16B
:1006B00008958FEF92E0089583E193E008958E57B7
:1006C0009B4FFC0180810895AF92BF92CF92DF9241
:1006D000EF92FF920F931F93CF93DF93EC017B0177
:1006E0008A81DB018C938B8111968C93EC81FD8147
:1006F000DF010D900020E9F7CD0101976C01CE1AC2
:10070000DF0AC601A0E0B0E0FB0182839383A483EB
:10071000B5836C817D81A601C70106960E94A11A4E
:10072000EE81FF81DF010D900020E9F7CD010197F7
:100730005C01AE1ABF0AF701EC0DFD1D850120E03A
:1007400030E006831783208731879AE0C90ED11CD9
:100750006E817F81A501C7018C0D9D1D0E94A11A8C
:10076000CA0CDB1CE885F985DF010D900020E9F754
:10077000CD0101975C01AE1ABF0AF701EC0DFD1D1A
:10078000850120E030E0008311832283338394E0ED
:10079000C90ED11C68857985A501C7018C0D9D1DE9
:1007A0000E94A11AAC0CBD1C3A852B859C858D85B9
:1007B000F701EA0DFB1D3083218392838383C501FA
:1007C0000496DF91CF911F910F91FF90EF90DF90F2
:1007D000CF90BF90AF9008950F931F93CF93DF9367
:1007E000DC01FB0112968C911297808313968D91F8
:1007F0009C911497EC0109900020E9F72197C81B00
:10080000D90B8E0120E030E00183128323833483EF
:1008100013966D917C911497AE01CF0105960E94BD
:10082000A11ACE010596DF91CF911F910F910895E6
:10083000BF92CF92DF92EF92FF920F931F93CF93CD
:10084000DF93EC017B018A81DB018C9311961C9272
:10085000119712961C92129713961C92FB013796D1
:1008600040E024E030E05A81C90104964517F0F4D5
:10087000AF81B88524E0429FA00DB11D11246C9179
:1008800011965C91119712963C91129713962C91A8
:10089000DF0113976C93DF0112975C93DF011197CF
:1008A0003C9320839C014F5F3496DDCF4985F7014F
:1008B000E20FF31F408311821282138220E03985F8
:1008C000F701E80FF91F04962317B0F4AE85BF8532
:1008D00034E0239FA00DB11D11246C9111965C9101
:1008E000119712964C91129713963C916083518305
:1008F000428333832F5FE3CF2889208311821282C2
:100900001382B12C2889B21698F54B2D50E0440F74
:10091000551FEB89FC89E40FF51F0190F081E02D54
:10092000DF010D900020E9F79D0121503109690197
:10093000CE1ADF0AF701E80FF91F860120E030E048
:1009400000831183228333838C010C5F1F4FEB895B
:10095000FC89E40FF51F60817181A601C701800F3A
:10096000911F0E94A11AC601800F911FB394CACF94
:10097000DF91CF911F910F91FF90EF90DF90CF907B
:10098000BF9008954F925F927F928F929F92AF9205
:10099000BF92CF92DF92EF92FF920F931F93CF936C
:1009A000DF93EC018B01DB01FC908A818F1550F401
:1009B000B4E0FB9EB00111248F8198850E944D11F7
:1009C00098878F83FA82F8013796F12C44E050E043
:1009D0009E012D5F3F4F8A81BA016C5F7F4F6B0193
:1009E000F81670F5408150E060E070E0742F6627E3
:1009F00055274427DF0113978C91482BDF0112976D
:100A00008C91582BDF0111978C91682B4B835C8361
:100A10006D837E83A6016F81788584E0F89E600DEA
:100A2000711D1124D9018D909D90AD90BC90DB017A
:100A30008D929D92AD92BC921397F3943496CBCF46
:100A4000F801E40FF51FF08089858F1550F484E0DC
:100A5000F89EB00111248E859F850E944D119F87BD
:100A60008E879601F98680E0FE013A969985D80135
:100A7000A20FB31FA9014C5F5F4F6A01891748F5A8
:100A800011969C91119712964C91129750E060E04C
:100A900070E0BA0155274427592B9C91492B139696
:100AA0009C91792B4A875B876C877D879601AE8501
:100AB000BF8594E0899FA00DB11D11244081518113
:100AC000628173814D935D936D937C9313978F5FD8
:100AD000CDCFFC9088898F1550F46F2D70E0660F94
:100AE000771F8B899C890E944D119C8B8B8BC60133
:100AF000F88A712C2E0151E1450E511C288972167D
:100B000008F044C0F801E80FF91FC080D180E280EE
:100B1000F3800496F801E80FF91FAC01662757FD32
:100B20006095762F4C0D5D1D6E1D7F1D9F01201B56
:100B3000310B4901A12CB12C84169506A606B706E7
:100B400038F4B1909F0122503109D901BC92EECF07
:100B5000C80ED91EF801EC0DFD1D319710829C01C5
:100B600021503109200F311F3A8B298BC6013B8957
:100B70002C89E32FF22FE70DF11DE70DF11DD201B6
:100B80002D913C91318320837394B8CFDF91CF9125
:100B90001F910F91FF90EF90DF90CF90BF90AF909B
:100BA0009F908F907F905F904F900895AF92BF92EB
:100BB000CF92DF92EF92FF920F931F93CF93DF9329
:100BC00000D01F921F92CDB7DEB78C016B01643647
:100BD00071053CF0FC01EE57FB4F8081882309F43E
:100BE00085C0DA01ED91FC910190F081E02DB80112
:100BF000655E7D4FCA0119957C015801BCEEAB1AA8
:100C0000BDEFBB0A2FEFF50120832EEFF801EB5E5D
:100C1000FD4F2083F801EA5EFD4F8083F801E95E15
:100C2000FD4F9083890F8095F801E85EFD4F80832A
:100C3000F801E75EFD4FC082F801E65EFD4FD0820D
:100C400085E090E020E030E0A701495F5F4F841726
:100C5000950750F4F801E80FF91FEC5EFD4F608135
:100C6000260F311D0196F3CFF8E0EF0EF11C400F77
:100C7000511FFA01EC5EFD4F2095208321E0E21622
:100C800022E0F206C8F46501C6018A199B098E1597
:100C90009F0584F4D80112968D919C911397F601CB
:100CA00061916F01DC01ED91FC910190F081E02DEB
:100CB0001995EACFC7011CC08DEA93E09A83898316
:100CC00083E08B8384E393E09D838C83D801ED9153
:100CD000FC910190F081E02DAE014F5F5F4F67E026
:100CE00070E0C80119958FEF9FEF02C080E090E09F
:100CF0000F900F900F900F900F90DF91CF911F9159
:100D00000F91FF90EF90DF90CF90BF90AF9008953C
:100D10008F929F92AF92BF92CF92DF92EF92FF920B
:100D2000CF93DF93EC0120E030E048E453E46C81A2
:100D30007D818E819F810E94B41920E030E84BEBC9
:100D400054E40E94A6186B017C0120E030E048E4E6
:100D500053E46A8D7B8D8C8D9D8D0E94B4194B015F
:100D60005C019B01AC01C701B6010E94A5180E945D
:100D70000E19653A46E074071CF084EA96E006C056
:100D8000643145E074073CF484E195E090933904C4
:100D90008093380404C07093390460933804A5012B
:100DA0009401C701B6010E94A6180E940E19653A67
:100DB00046E074071CF084EA96E006C0643145E022
:100DC00074073CF484E195E09093300480932F0401
:100DD00004C07093300460932F04DF91CF91FF9093
:100DE000EF90DF90CF90BF90AF909F908F9008953D
:100DF0008F929F92AF92BF92CF92DF92EF92FF922B
:100E00000F931F93CF93DF93EC01CB01BA018B01BA
:100E10009C01B7E13595279517950795BA95D1F7B8
:100E2000112722273327011511052105310521F04E
:100E300000581C4F2F4F3F4F188219821A826B01A6
:100E40007C01B5E0CC0CDD1CEE1CFF1CBA95D1F783
:100E5000CB826B017C0143E0F594E794D794C7946F
:100E60004A95D1F7CC826B017C015BE0F594E79465
:100E7000D794C7945A95D1F7CD8268017901E4E0FF
:100E8000CC0CDD1CEE1CFF1CEA95D1F74B015C017C
:100E9000F3E1B594A79497948794FA95D1F7482DE8
:100EA0004F704C294E8368017901A4E0F594E794D2
:100EB000D794C794AA95D1F720E030E0A9010E9409
:100EC0000A1987FD02C0CF8203C08C2D80688F83F2
:100ED00088E090E0DF91CF911F910F91FF90EF900C
:100EE000DF90CF90BF90AF909F908F900895EF923A
:100EF000FF920F931F93CF93DF938C01EB01FC01C3
:100F00004281538164817581CE010E94F8067C0183
:100F1000F8014681578160857185CE018E0D9F1D38
:100F20000E94F806E80EF91EF80142855385648593
:100F30007585CE018E0D9F1D0E94F8068E0D9F1D9A
:100F4000DF91CF911F910F91FF90EF900895EF9255
:100F5000FF920F931F93CF93DF938C017B01029637
:100F60000E947707EC01B701680F791FC80140960E
:100F70000E9477078C0F9D1FDF91CF911F910F91DA
:100F8000FF90EF9008950F931F93FC01DB01038105
:100F900002950695077010E020E030E00D931D9358
:100FA0002D933C931397448150E060E070E083E020
:100FB000440F551F661F771F8A95D1F7402B512B81
:100FC000622B732B4D935D936D937C9313970581E7
:100FD00010E020E030E09BE0000F111F221F331FC4
:100FE0009A95D1F7042B152B262B372B0D931D9398
:100FF0002D933C93139746814F7050E060E070E072
:1010000083E1440F551F661F771F8A95D1F7402B48
:10101000512B622B732B4D935D936D937C931397A0
:10102000868182958F7007810F7710E020E030E095
:1010300094E0000F111F221F331F9A95D1F7082B40
:101040000115110521053105A1F0005813402109B2
:10105000310997E1000F111F221F331F9A95D1F715
:10106000042B152B262B372B0D931D932D933C937F
:1010700013970781007810E020E030E0302F22271E
:10108000112700274D915D916D917C911397402B15
:10109000512B622B732B4D935D936D937C93139720
:1010A00088E090E01F910F910895EF92FF920F93C7
:1010B0001F93CF93DF938C01EB01BC016E5F7F4FD9
:1010C000CE010E94C3077C01B8016A5F7F4FCE0149
:1010D0008E0D9F1D0E94C307E80EF91EB801665FC2
:1010E0007F4FCE018E0D9F1D0E94C3078E0D9F1D49
:1010F000DF91CF911F910F91FF90EF900895EF92A4
:10110000FF920F931F93CF93DF938C017B01029685
:101110000E945508EC01B701680F791FC80140967D
:101120000E9455088C0F9D1FDF91CF911F910F9149
:10113000FF90EF9008950F931F93CF93DF93EC01EF
:101140008C010A5F1F4FC8010E947F08ECA1FDA11E
:10115000C801DF91CF911F910F911994FC018581F6
:101160009681278130858217930714F4059604C071
:10117000281739071CF40597968385830895CF9324
:10118000DF9361E082E00E94AD1361E083E00E94A2
:10119000AD1360E087E00E94AD1382E090E0909391
:1011A00035048093340462E070E081E394E00E94AF
:1011B0002E1083E090E090932C0480932B0463E046
:1011C00070E088E294E00E942E10CCEDD5E0D09340
:1011D0003904C0933804D0933704C09336046CEDBF
:1011E00075E081E394E00E943410D0933004C09302
:1011F0002F04D0932E04C0932D046CED75E088E28B
:1012000094E00E943410E0E8F8E080E090E0219162
:101210003191232B81F4FC01EE0FFF1FE058F74FB3
:1012200020E034E0318320838C599F4F9093030456
:101230008093020404C001968931910541F74091E1
:101240003E0450913F0460914004709141048091AC
:101250003C0490913D040E94B9161092B30810927C
:10126000B2081092B5081092B4081092B908109202
:10127000B8081092B7081092B608DF91CF91089580
:101280000F931F93CF93DF93CDB7DEB72A970FB697
:10129000F894DEBF0FBECDBF8C0185E993E09A8341
:1012A00089831B821C821D821E821F8218861986DA
:1012B0001A86D801ED91FC910190F081E02DAE01EC
:1012C0004F5F5F4F6AE070E0C80119950E94DF1020
:1012D000F80160877187828793872A960FB6F89402
:1012E000DEBF0FBECDBFDF91CF911F910F9108954B
:1012F0004F925F926F927F928F929F92AF92BF9226
:10130000CF92DF92EF92FF920F931F93CF93DF93D1
:10131000CDB7DEB72E970FB6F894DEBF0FBECDBFA8
:101320008C0181EA93E09A8389831C821B828CE67C
:1013300093E09E838D8398878F839A8789871B8606
:101340001C861D861E86580182E3A80EB11C7801FA
:10135000412C42E0542E612C712C6701ACEECA1A6C
:10136000ABEFDA0AD601ED91FC913097B9F18481A7
:1013700095819C838B83808191819E838D838281E3
:101380009381DC01ED91FC910480F581E02D1995AC
:1013900098878F83D601ED91FC9182819381DC0146
:1013A000ED91FC910680F781E02D19959A87898748
:1013B0004B865C866D867E86F80180819181F60180
:1013C000A081B18118966D917C911997DC01ED9106
:1013D000FC91AE014F5F5F4FC8011995B2E0EB0E73
:1013E000F11CEA14FB0409F0B8CF7801412C32E07B
:1013F000532E612C712C6701EAEBCE1AEBEFDE0A5B
:10140000F601A081B1811097E1F112968D919C9126
:1014100013979C838B8314968D919C9115979E8333
:101420008D83ED91FC9111970480F581E02DCD0124
:10143000199598878F83D6018D919C91DC01ED9150
:10144000FC910680F781E02D19959A8789874B8654
:101450005C866D867E86D801ED91FC9180809180BE
:10146000F60180819181DC01ED91FC910280F38194
:10147000E02D1995AE014F5F5F4FBC01C801F4012B
:101480001995F2E0EF0EF11CEA14FB0409F0B3CF5A
:10149000F801EE57FB4F81E080832E960FB6F8944B
:1014A000DEBF0FBECDBFDF91CF911F910F91FF9097
:1014B000EF90DF90CF90BF90AF909F908F907F90F4
:1014C0006F905F904F9008958F929F92AF92BF92CE
:1014D000CF92DF92EF92FF920F931F93CF93DF9300
:1014E000CDB7DEB72A970FB6F894DEBF0FBECDBFDB
:1014F0008C015B0185E993E09A8389831B821C82BE
:101500001D821E821F82188619861A860E94DF108D
:101510006B017C01F80180859185A285B385C81A8D
:10152000D90AEA0AFB0AB501CE0101960E94CF0151
:1015300058EE852E53E0952EA12CB12CC701B60193
:10154000A50194010E94471A69017A019B01AC012F
:101550008B819C81AD81BE818C0D9D1DAE1DBF1DFB
:101560008B839C83AD83BE8360E472E48FE090E064
:101570000E94171ACF80D884E984FA84C60ED71E39
:10158000E81EF91ECF82D886E986FA860E94DF100F
:10159000CB80DC80ED80FE80F1E0CF1AD108E1083D
:1015A000F108A50194010E94471A49015A019B01C3
:1015B000AC01C818D908EA08FB08F801C486D5862A
:1015C000E686F786CF80D884E984FA84F6E3DF1ACA
:1015D000F5E6EF0AF4ECFF0A60E472E48FE090E0D5
:1015E0000E94171AC61AD70AE80AF90AF801C08A2F
:1015F000D18AE28AF38AB801605F7F4FC8010C96F6
:101600000E9467100E94DF10F801E957FB4F6083CA
:101610007183828393832A960FB6F894DEBF0FBE40
:10162000CDBFDF91CF911F910F91FF90EF90DF9091
:10163000CF90BF90AF909F908F9008952F923F9240
:101640004F925F926F927F928F929F92AF92BF92D2
:10165000CF92DF92EF92FF920F931F93CF93DF937E
:10166000CDB7DEB760970FB6F894DEBF0FBECDBF23
:101670004C010E94DF106B017C01940129573B4F04
:101680003E832D83F90180819181A281B381A701DD
:101690009601281B390B4A0B5B0BDA01C901893F04
:1016A0009A42A105B10520F0F401EE57FB4F1082DC
:1016B000A40148585B4F588B4F87DA018D919C915C
:1016C000892B79F0F401E557FB4F80819181A2814C
:1016D000B3818C159D05AE05BF0518F4FA01118282
:1016E00010823401F0E86F1AFBEF7F0A940124584E
:1016F0003B4F3A832983A4014E575B4F58874F8352
:10170000940120573B4F3C872B87A40141575B4FE7
:101710005E874D87840106581B4F1601270154E14F
:10172000250E311C411C511C540184E1A80EB11C32
:10173000940122583B4F3C832B83A40145575B4FB8
:101740005A874987D40112968D919C911397DC0199
:10175000ED91FC910680F781E02D19959C0197FD94
:101760002DC1F30180819181820F931F918380832A
:10177000AF85B8894D915C9147305105E1F4EB811B
:10178000FC8180819181AC014F5F5F4F5183408329
:10179000F401E80FF91F248BD8018D919C911197CA
:1017A00001978D939C93892B09F0BECF28E030E000
:1017B000EF85F88987C04115510519F52F3F31058F
:1017C00069F481E090E0AF85B8898D939C93E985B9
:1017D000FA852082318242825382B4CF0E94DF1088
:1017E0006C197D098E099F09663071058105910587
:1017F00008F49ACFF401EE57FB4F10828EEF9FEF63
:1018000003C14130510599F42E3F310519F482E0AE
:1018100090E02FC0EF85F88911821082AF81B885E2
:101820008C91811181CFC4010E9440098BCF42303D
:10183000510589F4F80131832083AB81BC811D926D
:101840001C9283E090E0EF85F88991838083D30137
:101850002D933C9377CF4330510581F4322F2227CB
:10186000F80180819181820F931F9183808384E0AE
:1018700090E0AF85B8898D939C9364CF4430510537
:1018800099F460E071E00E94331A8F3F910539F4BA
:1018900085E090E0EF85F8899183808353CFAF8511
:1018A000B8891D921C924ECF4530510571F4E981E3
:1018B000FA813183208386E090E0AF85B8898D93EB
:1018C0009C93F301318320833DCF46305105D1F401
:1018D000322F2227A981BA818D919C911197820F75
:1018E000931F8D939C9327E030E0EF85F889318337
:1018F0002083D8018D919C91892B09F015CF28E088
:1019000030E0E0CF4830510509F00ECFAF85B889FF
:101910001D921C9260E071E00E94331A8F3F910586
:1019200009F002CFA981BA81ED91FC913097B1F411
:10193000C4010E944009C4010E947809F401ED57D6
:10194000FB4FC082D182E282F382ED81FE81C082B0
:10195000D182E282F3828FEF9FEF56C0EA30F10529
:1019600029F4B501C4010E94640AECCEE630F10509
:1019700051F4B5018B859C850E94C20481E0AD8540
:10198000BE858C93DFCEEB30F10521F4EF81F88535
:101990001082D8CEE154FE4FEE0FFF1FE80DF91D67
:1019A00080819181009709F4BFCEDC01ED91FC911B
:1019B0000190F081E02DB5011995C4CEF401EE57E8
:1019C000FB4F80818823F1F084010D571B4FF801F4
:1019D00080819181A281B381A7019601281B390BD7
:1019E0004A0B5B0BDA01C901853C9940A105B105A1
:1019F00048F0C4010E944009D801CD92DD92ED92D9
:101A0000FC92139780E090E060960FB6F894DEBFEA
:101A10000FBECDBFDF91CF911F910F91FF90EF903F
:101A2000DF90CF90BF90AF909F908F907F906F90FE
:101A30005F904F903F902F9008958AE394E00E942A
:101A40001E0B81E394E00E94AE0888E294E00E94BD
:101A5000AE08609136047091370481E394E00E94EF
:101A6000341060912D0470912E0488E294E00C945F
:101A700034108DED93E090933B0480933A0483EE11
:101A800099E090933D0480933C0480E091EEA0E0C7
:101A9000B0E080933E0490933F04A0934004B09341
:101AA00041041092BC0889EB93E09093CB0880939B
:101AB000CA081092CC081092D2081092D108109245
:101AC000D3081092D9081092D8081092DA08109210
:101AD000DE081092DD08EEE4F8E01192119288E041
:101AE000E038F807D1F7E0E8F8E01192119288E0C9
:101AF000E23BF807D1F7EEE4F4E0119286E0EE3431
:101B0000F807D9F7EEE4F6E0119288E0EE34F80732
:101B1000D9F781E394E00E94630F88E294E00E9489
:101B2000630F87EE93E0909301048093000481EDAE
:101B300093E0909307048093060485EC93E09093E0
:101B400009048093080410920A0410920B04109266
:101B50000C0410920D0410920E0410920F041092B7
:101B60001004109211041092120410921304109297
:101B70001404109215049093170480931604109285
:101B800018041092190410921A0410921B04109257
:101B90001C0410921D0410921E0410921F04109237
:101BA000200410922104109222041092230488E849
:101BB00096E0909325048093240481E090E0909334
:101BC0002704809326048DE693E090930504809388
:101BD00004040895CF92DF92EF92FF920F931F9328
:101BE000CF93DF936C018B017A01EC01C052D74F88
:101BF000888187FF04C0FB011182108223C02CE082
:101C00002C9DC0012D9D900D11242881AC01420F07
:101C1000511D27FD5A952091DF0830E042175307E8
:101C20008CF42881AC01420F511D27FD5A959A0171
:101C3000FA01EE0FFF1FE20FF31FEC51F74F208167
:101C400026FD19C088818F5F88838CE08C9D900170
:101C50008D9D300D11248881A901480F511D87FDEC
:101C60005A958091DF0890E048175907B4F48881AD
:101C70008C303CF112C02881820F911D27FD9A956E
:101C8000FC01EE0FFF1FE80FF91FEC51F74F8081A9
:101C900060E08F730E94E613D5CFF80180819181B7
:101CA000049680349C4918F480E49CE904C0F8014F
:101CB000808191810496F701918380838FEF8883DF
:101CC00041C0F801808191814881B901640F711D83
:101CD00047FD7A95AB01FB01EE0FFF1FE40FF51FE7
:101CE000EC51F74F41815281840F951FF701918389
:101CF00080838881A901480F511D87FD5A95FA01FB
:101D0000EE0FFF1FE40FF51FEC51F74F808186FFA8
:101D100019C08881280F311D87FD3A95F901EE0F12
:101D2000FF1FE20FF31FEC51F74F808161E08F73CB
:101D3000DF91CF911F910F91FF90EF90DF90CF90A7
:101D40000C94E613DF91CF911F910F91FF90EF90CC
:101D5000DF90CF9008951F920F920FB60F9211242B
:101D60000BB60F922F933F934F935F936F937F9395
:101D70008F939F93AF93BF93EF93FF9348E850E007
:101D800064E870E081E090E00E94EA0DFF91EF913D
:101D9000BF91AF919F918F917F916F915F914F9183
:101DA0003F912F910F900BBE0F900FBE0F901F9081
:101DB00018951F920F920FB60F9211240BB60F9227
:101DC0002F933F934F935F936F937F938F939F9343
:101DD000AF93BF93EF93FF9348E950E064E970E05D
:101DE00082E090E00E94EA0DFF91EF91BF91AF91E8
:101DF0009F918F917F916F915F914F913F912F9123
:101E00000F900BBE0F900FBE0F901F9018951F9252
:101E10000F920FB60F9211240BB60F922F933F9390
:101E20004F935F936F937F938F939F93AF93BF93E2
:101E3000EF93FF9348EA50E064EA70E083E090E0BB
:101E40000E94EA0DFF91EF91BF91AF919F918F9109
:101E50007F916F915F914F913F912F910F900BBEAA
:101E60000F900FBE0F901F9018951F920F920FB6F4
:101E70000F9211240BB60F922F933F934F935F93C2
:101E80006F937F938F939F93AF93BF93EF93FF9342
:101E900048E251E064E271E080E090E00E94EA0DE7
:101EA000FF91EF91BF91AF919F918F917F916F9132
:101EB0005F914F913F912F910F900BBE0F900FBEEE
:101EC0000F901F9018952091DF082033A0F431E087
:101ED000320F3093DF08FC012083822F90E0FC0159
:101EE000EE0FFF1FE80FF91FEC51F74F88EB9BE057
:101EF0009283818308952FEFFC0120830895DF9260
:101F0000EF92FF920F931F93CF93DF93EC01D62EA6
:101F10007A0189018881803308F068C061E08D2DE5
:101F20000E94AD138881A82FB0E0FD01EE0FFF1FC6
:101F3000EA0FFB1FEC51F74F2D2D2F739081907CF2
:101F4000922B908360E272E06E197F0977FF02C0E6
:101F50006D5F7F4F7595679575956795698340E6C9
:101F600059E0401B510B57FF02C04D5F5F4F559525
:101F70004795559547954A836CE00E94271A9CE047
:101F8000899FB001112420E030E0A901460F571FBE
:101F9000FA01EE0FFF1FE40FF51FEC51F74F908190
:101FA00096FD18C02F5F3F4F2C30310571F790E040
:101FB0008130910521F51092800082E080938100AC
:101FC0001092850010928400B19A80916F00826017
:101FD00080936F00888190E0FC01EE0FFF1FE80FF7
:101FE000F91FEC51F74F8081806480838881DF91F5
:101FF000CF911F910F91FF90EF90DF900895823065
:10200000910569F41092900082E080939100109203
:1020100095001092940088BB80937100DBCF8330D1
:10202000910569F41092A00082E08093A1001092C3
:10203000A5001092A40089BB80937200CBCF892B9E
:1020400049F61092200182E080932101109225012F
:10205000109224018ABB80937300BCCF20E639E044
:1020600040E252E00C947F0FFC018081803370F5D8
:10207000918128E830E0291B310997FD3395220F23
:10208000331F220F331F621773077CF0928128E5FC
:1020900032E0291B310997FD3395220F331F220FA0
:1020A000331F621773070CF49B014FB7F89490E04D
:1020B000FC01EE0FFF1FE80FF91FEC51F74F225004
:1020C0003109220F331F328321834FBF0895CF92EE
:1020D000DF92EF92FF920F931F93CF93DF938C01C8
:1020E000EB01688179818A819B8120E03AEC4AE9A1
:1020F0005BE30E94471AF801C080D180E280F38040
:10210000C20ED31EE41EF51EC082D182E282F3828B
:10211000688379838A839B83DF91CF911F910F918D
:10212000FF90EF90DF90CF9008951F920F920FB61F
:102130000F9211242F933F938F939F93AF93BF934D
:102140008091750990917609A0917709B0917809ED
:102150003091740923E0230F2D3720F40196A11D3F
:10216000B11D05C026E8230F0296A11DB11D2093C5
:1021700074098093750990937609A0937709B093B9
:1021800078098091790990917A09A0917B09B091A1
:102190007C090196A11DB11D8093790990937A095C
:1021A000A0937B09B0937C09BF91AF919F918F91D0
:1021B0003F912F910F900FBE0F901F9018952FB742
:1021C000F8946091750970917609809177099091E2
:1021D00078092FBF0895789484B5826084BD84B552
:1021E000816084BD85B5826085BD85B5816085BD12
:1021F000EEE6F0E0808181608083E1E8F0E010822B
:10220000808182608083808181608083E0E8F0E06B
:10221000808181608083E1EBF0E080818460808355
:10222000E0EBF0E0808181608083E1E9F0E0808193
:1022300082608083808181608083E0E9F0E080813A
:1022400081608083E1EAF0E0808182608083808128
:1022500081608083E0EAF0E0808181608083E1E258
:10226000F1E0808182608083808181608083E0E210
:10227000F1E0808181608083EAE7F0E08081846022
:10228000808380818260808380818160808380817F
:10229000806880831092C10008956F927F928F9220
:1022A0009F92AF92BF92CF92DF92EF92FF920F93E5
:1022B0001F93CF93DF93EC01CB01209781F4DF9143
:1022C000CF911F910F91FF90EF90DF90CF90BF9033
:1022D000AF909F908F907F906F900C943612FE017C
:1022E000E60FF71F9E0122503109E217F30708F4A9
:1022F000ACC0D9010D911C91119706171707B8F0C2
:102300000530110508F49FC0A80144505109461733
:10231000570708F498C002501109061B170B0193C8
:1023200011936D937C93CF010E94CE128CC05B0100
:10233000A01AB10A4E01800E911EA091270CB091F7
:10234000280C612C712C60E070E0109709F449C0F2
:10235000A815B905C9F5ED90FC901197670142E009
:10236000C40ED11CCA14DB0478F147018A189B08FB
:10237000640142E0C40ED11C1296BC9012971396D1
:10238000AC91B5E0CB16D10440F0B282A383918228
:102390008082D9018D939C9309C00E5F1F4F0E0D53
:1023A0001F1DF90111830083EB2DFA2F61157105B3
:1023B00031F0DB011396FC93EE93129744C0F09337
:1023C000280CE093270C3FC06D917C911197661605
:1023D000770608F43B01BD0112960D90BC91A02D2B
:1023E000B4CF6091250C7091260C68157905E9F43D
:1023F00068167906D0F44091040250910502411507
:10240000510541F44DB75EB7609108027091090221
:10241000461B570BE417F507C0F4F093260CE09326
:10242000250CF901918380830EC00E9436127C0135
:10243000009759F0A801BE010E94A11ACE010E9486
:10244000CE12C70104C0CE0102C080E090E0DF914F
:10245000CF911F910F91FF90EF90DF90CF90BF90A1
:10246000AF909F908F907F906F900895CF93DF9360
:102470008230910510F482E090E0E091270CF09119
:10248000280C20E030E0A0E0B0E0309739F1408146
:10249000518148175907B8F04817590771F48281DC
:1024A0009381109729F013969C938E9312972CC0CA
:1024B0009093280C8093270C27C02115310531F00B
:1024C0004217530718F0A901DB0101C0EF019A017F
:1024D000BD01DF010280F381E02DD7CF2115310549
:1024E000F9F0281B390B2430310580F48A819B8157
:1024F0006115710521F0FB019383828304C09093E1
:10250000280C8093270CFE01329644C0FE01E20F96
:10251000F31F8193919322503109398328833AC064
:102520002091250C3091260C232B41F4209106029A
:10253000309107023093260C2093250C2091040241
:10254000309105022115310541F42DB73EB7409178
:10255000080250910902241B350BE091250CF091E3
:10256000260CE217F307A0F42E1B3F0B28173907A0
:1025700078F0AC014E5F5F4F2417350748F04E0FDF
:102580005F1F5093260C4093250C8193919302C0BA
:10259000E0E0F0E0CF01DF91CF910895CF93DF939A
:1025A000009709F487C0FC01329713821282C09110
:1025B000270CD091280C209781F420813181280F9D
:1025C000391F8091250C9091260C8217930779F57D
:1025D000F093260CE093250C6DC0DE0120E030E086
:1025E000AE17BF0750F412964D915C9113979D0161
:1025F0004115510509F1DA01F3CFB383A28340817C
:102600005181840F951F8A179B0771F48D919C91BE
:102610001197840F951F02969183808312968D9156
:102620009C911397938382832115310529F4F093AC
:10263000280CE093270C3EC0D9011396FC93EE932F
:1026400012974D915D91A40FB51FEA17FB0779F41E
:1026500080819181840F951F0296D90111969C93D8
:102660008E938281938113969C938E931297E0E0D0
:10267000F0E08A819B81009719F0FE01EC01F9CF0F
:10268000CE01029628813981820F931F2091250C5B
:102690003091260C2817390769F4309729F41092E5
:1026A000280C1092270C02C013821282D093260CA1
:1026B000C093250CDF91CF91089590E0FC013197F4
:1026C000E131F10508F048C0EE58FF4F0C94691A4B
:1026D000809180008F7703C0809180008F7D8093F0
:1026E0008000089584B58F7702C084B58F7D84BD46
:1026F00008958091B0008F7703C08091B0008F7DE6
:102700008093B0000895809190008F7707C08091EA
:1027100090008F7D03C080919000877F8093900010
:1027200008958091A0008F7707C08091A0008F7DD1
:1027300003C08091A000877F8093A00008958091BE
:1027400020018F7707C0809120018F7D03C0809189
:102750002001877F809320010895CF93DF9390E03D
:10276000FC01E45BFE4F2491FC01EE56FE4F849188
:10277000882349F190E0880F991FFC01EE50FE4F2D
:10278000A591B49188529E4FFC01C591D4919FB7F9
:10279000611108C0F8948C91209582238C938881D4
:1027A00082230AC0623051F4F8948C91322F309514
:1027B00083238C938881822B888304C0F8948C9126
:1027C000822B8C939FBFDF91CF9108950F931F931E
:1027D000CF93DF931F92CDB7DEB7282F30E0F901FA
:1027E000EA5FFE4F8491F901E45BFE4F1491F90119
:1027F000EE56FE4F04910023C9F0882321F069832F
:102800000E945D136981E02FF0E0EE0FFF1FE85298
:10281000FE4FA591B4919FB7F8948C91611103C0BC
:102820001095812301C0812B8C939FBF0F90DF9166
:10283000CF911F910F910895FC0124853585F901F1
:10284000E05CFF4F80819181F901EE5BFF4F2081B9
:102850003181821B930B8F7399270895FC01848526
:102860009585FC01E05CFF4F40815181FC01EE5BEE
:10287000FF4F208131814217530741F00190F081D1
:10288000E02DE80FF91F808190E008958FEF9FEF12
:102890000895FC0184859585FC01E05CFF4F408133
:1028A0005181FC01EE5BFF4F2081318142175307BC
:1028B00079F0A081B181A80FB91F8C91208131815D
:1028C0002F5F3F4F2F7333273183208390E008958C
:1028D0008FEF9FEF0895FC0181A1882329F0A4893F
:1028E000B5898C9186FFFBCF11A20895CF93DF931A
:1028F000FC0126853785D901A05CBF4F8D919C9145
:10290000119701968F739927E901CE5BDF4F4881BC
:10291000598184179507D9F30D90BC91A02DA20F72
:10292000B31F6C93A685B785A05CBF4F11969C938F
:102930008E93A689B7892C9181E090E0078C02C024
:10294000880F991F0A94E2F7282B2C9381E081A32A
:102950000488F589E02D80818064808381E090E0A7
:10296000DF91CF910895FB01E05CFF4F2081318121
:102970002F5F3F4F2F733327DB01AE5BBF4F4D916E
:102980005C912417350739F0A081B181A60FB71FDC
:102990008C9331832083089508951F920F920FB670
:1029A0000F9211240BB60F922F933F934F935F9387
:1029B0006F937F938F939F93AF93BF93EF93FF9307
:1029C0008091C00082FD07C08091C60061EE7BE06F
:1029D0000E94B31402C08091C600FF91EF91BF9195
:1029E000AF919F918F917F916F915F914F913F91A7
:1029F0002F910F900BBE0F900FBE0F901F90189548
:102A000008951F920F920FB60F9211240BB60F92DA
:102A10002F933F934F935F936F937F938F939F93E6
:102A2000AF93BF93EF93FF938091C80082FD07C0DF
:102A30008091CE0069E57BE00E94B31402C08091D2
:102A4000CE00FF91EF91BF91AF919F918F917F91B8
:102A50006F915F914F913F912F910F900BBE0F900F
:102A60000FBE0F901F90189508951F920F920FB6EA
:102A70000F9211240BB60F922F933F934F935F93B6
:102A80006F937F938F939F93AF93BF93EF93FF9336
:102A90008091D00082FD07C08091D60061ED7AE080
:102AA0000E94B31402C08091D600FF91EF91BF91B4
:102AB000AF919F918F917F916F915F914F913F91D6
:102AC0002F910F900BBE0F900FBE0F901F90189577
:102AD00008951F920F920FB60F9211240BB60F920A
:102AE0002F933F934F935F936F937F938F939F9316
:102AF000AF93BF93EF93FF938091300182FD07C0A6
:102B00008091360169E47AE00E94B31402C080919A
:102B10003601FF91EF91BF91AF919F918F917F917E
:102B20006F915F914F913F912F910F900BBE0F903E
:102B30000FBE0F901F90189583EE99E00E941C1411
:102B4000892B11F00E94CC1481EC99E00E941C1496
:102B5000892B11F00E9400158FE999E00E941C1446
:102B6000892B11F00E9434158DE799E00E941C1406
:102B7000892B11F00C94681508951F920F920FB6CF
:102B80000F9211240BB60F922F933F938F939F9325
:102B9000EF93FF932091DD0B3091DE0B8091DF0BE3
:102BA0009091E00B2817390731F48091C1008F7D97
:102BB0008093C10014C0E091DF0BF091E00BE3566D
:102BC000F44F20818091DF0B9091E00B01968F7381
:102BD00099279093E00B8093DF0B2093C600FF9121
:102BE000EF919F918F913F912F910F900BBE0F907E
:102BF0000FBE0F901F9018951F920F920FB60F9255
:102C000011240BB60F922F933F938F939F93EF93C3
:102C1000FF932091550B3091560B8091570B90915B
:102C2000580B2817390731F48091C9008F7D8093A4
:102C3000C90014C0E091570BF091580BEB5EF44FB4
:102C400020818091570B9091580B01968F73992793
:102C50009093580B8093570B2093CE00FF91EF91E8
:102C60009F918F913F912F910F900BBE0F900FBEB0
:102C70000F901F9018951F920F920FB60F9211246C
:102C80000BB60F922F933F938F939F93EF93FF93E6
:102C90002091CD0A3091CE0A8091CF0A9091D00A2E
:102CA0002817390731F48091D1008F7D8093D100AE
:102CB00014C0E091CF0AF091D00AE357F54F20817C
:102CC0008091CF0A9091D00A01968F7399279093A3
:102CD000D00A8093CF0A2093D600FF91EF919F9165
:102CE0008F913F912F910F900BBE0F900FBE0F90C1
:102CF0001F9018951F920F920FB60F9211240BB6CA
:102D00000F922F933F938F939F93EF93FF93209175
:102D1000450A3091460A8091470A9091480A28173F
:102D2000390731F4809131018F7D8093310114C0D6
:102D3000E091470AF091480AEB5FF54F20818091BE
:102D4000470A9091480A01968F7399279093480AF1
:102D50008093470A20933601FF91EF919F918F91C5
:102D60003F912F910F900BBE0F900FBE0F901F90B1
:102D70001895CF92DF92EF92FF92CF93DF93EC0101
:102D80006A017B01411581EE580761057105F9F073
:102D9000EC89FD8981E090E008A002C0880F991FAE
:102DA0000A94E2F7808360E079E08DE390E0A70188
:102DB00096010E94471A215031094109510956953F
:102DC000479537952795211580E1380798F0EC89CC
:102DD000FD89108260E874E88EE190E0A701960119
:102DE0000E94471A215031094109510956954795CA
:102DF00037952795E889F9893083EA89FB8920830B
:102E000019A2EE89FF89408181E090E09C010C8C41
:102E100002C0220F331F0A94E2F7422B4083EE894F
:102E2000FF8940819C010D8C02C0220F331F0A9440
:102E3000E2F7422B4083EE89FF8940819C010E8C92
:102E400002C0220F331F0A94E2F7422B4083EE891F
:102E5000FF8920810F8C02C0880F991F0A94E2F726
:102E6000809582238083DF91CF91FF90EF90DF9058
:102E7000CF900895CF931092E6091092E50988EE5D
:102E800093E0A0E0B0E08093E7099093E809A09375
:102E9000E909B093EA0923EF33E03093E409209382
:102EA000E30941EE5BE05093F0094093EF094DE9EF
:102EB0005BE05093F2094093F10945EC50E05093E8
:102EC000F4094093F30944EC50E05093F609409321
:102ED000F50940EC50E05093F8094093F70941ECB4
:102EE00050E05093FA094093F90942EC50E05093B6
:102EF000FC094093FB0946EC50E05093FE094093D7
:102F0000FD09C4E0C093FF09F3E0F093000AE7E095
:102F1000E093010A75E07093020A61E06093030A8E
:102F20001092C4091092C3098093C5099093C609F1
:102F3000A093C709B093C8093093C2092093C1096F
:102F400049E55BE05093CE094093CD0945E15BE054
:102F50005093D0094093CF094DEC50E05093D209E3
:102F60004093D1094CEC50E05093D4094093D309DD
:102F700048EC50E05093D6094093D50949EC50E015
:102F80005093D8094093D7094AEC50E05093DA099E
:102F90004093D9094EEC50E05093DC094093DB0993
:102FA000C093DD09F093DE09E093DF097093E00937
:102FB0006093E1091092A2091092A1098093A309DC
:102FC0009093A409A093A509B093A6093093A009F2
:102FD00020939F0941ED5AE05093AC094093AB090F
:102FE0004DE85AE05093AE094093AD0945ED50E0ED
:102FF0005093B0094093AF0944ED50E05093B209AB
:103000004093B10940ED50E05093B4094093B309A7
:1030100041ED50E05093B6094093B50942ED50E0C0
:103020005093B8094093B70946ED50E05093BA0960
:103030004093B909C093BB09F093BC09E093BD0963
:103040007093BE096093BF091092800910927F09A6
:103050008093810990938209A0938309B093840996
:1030600030937E0920937D0989E49AE090938A0940
:103070008093890985E09AE090938C0980938B096D
:1030800085E391E090938E0980938D0984E391E02C
:103090009093900980938F0980E391E09093920937
:1030A0008093910981E391E090939409809393092F
:1030B00082E391E0909396098093950986E391E0ED
:1030C0009093980980939709C0939909F0939A096E
:1030D000E0939B0970939C0960939D09CF9108959B
:1030E0000E94EB100E94BF08CCE9D5E10E941D0DA3
:1030F0002097E1F30E949C15F9CFCF92DF92EF92D7
:10310000FF920F931F93CF93DF936C017A01EB0132
:10311000E60EF71E00E010E0CE15DF0561F06991C4
:10312000D601ED91FC910190F081E02DC601199539
:10313000080F191FF1CFC801DF91CF911F910F9197
:10314000FF90EF90DF90CF9008955058BB27AA27AB
:103150000ED0D0C0C1D030F0C6D020F031F49F3FA7
:1031600011F41EF4B6C00EF4E095E7FBACC0E92FF5
:10317000D2D080F3BA17620773078407950718F057
:1031800071F49EF5EAC00EF4E0950B2EBA2FA02D37
:103190000B01B90190010C01CA01A0011124FF2704
:1031A000591B99F0593F50F4503E68F11A16F040FF
:1031B000A22F232F342F4427585FF3CF46953795FE
:1031C0002795A795F0405395C9F77EF41F16BA0BC3
:1031D000620B730B840BBAF09150A1F0FF0FBB1F71
:1031E000661F771F881FC2F70EC0BA0F621F731FBA
:1031F000841F48F4879577956795B795F7959E3F17
:1032000008F0B3CF9395880F08F09927EE0F9795A4
:103210008795089534D008F481E0089504D0689427
:10322000B1119CC008957FD088F09F5790F0B92FBE
:103230009927B751A0F0D1F0660F771F881F991F0B
:103240001AF0BA95C9F712C0B13081F086D0B1E05A
:10325000089583C0672F782F8827B85F39F0B93F6A
:10326000CCF3869577956795B395D9F73EF490950D
:103270008095709561957F4F8F4F9F4F0895990F5F
:103280000008550FAA0BE0E8FEEF16161706E80730
:10329000F907C0F012161306E407F50798F0621B51
:1032A000730B840B950B39F40A2661F0232B242B26
:1032B000252B21F408950A2609F4A140A6958FEF45
:1032C000811D811D089597F99F6780E870E060E097
:1032D00008959FEF80EC089500240A9416161706AF
:1032E00018060906089500240A94121613061406F7
:1032F00005060895092E0394000C11F4882352F05A
:10330000BB0F40F4BF2B11F460FF04C06F5F7F4F11
:103310008F4F9F4F089557FD9058440F551F59F0F8
:103320005F3F71F04795880F97FB991F61F09F3FB2
:1033300079F087950895121613061406551FF2CFDB
:103340004695F1DF08C0161617061806991FF1CF2B
:1033500086957105610508940895E894BB27662752
:103360007727CB0197F908950BD0C4CFB5DF28F0AC
:10337000BADF18F0952309F0A6CFABCF1124EECF1A
:10338000CADFA0F3959FD1F3950F50E0551F629FC0
:10339000F001729FBB27F00DB11D639FAA27F00DAE
:1033A000B11DAA1F649F6627B00DA11D661F829FD5
:1033B0002227B00DA11D621F739FB00DA11D621FBA
:1033C000839FA00D611D221F749F3327A00D611DD7
:1033D000231F849F600D211D822F762F6A2F1124B9
:1033E0009F5750408AF0E1F088234AF0EE0FFF1F0C
:1033F000BB1F661F771F881F91505040A9F79E3F43
:10340000510570F060CFAACF5F3FECF3983EDCF33C
:10341000869577956795B795F795E7959F5FC1F77F
:10342000FE2B880F911D9695879597F90895DB01DE
:103430008F939F930E946F1ABF91AF91A29F800DAF
:10344000911DA39F900DB29F900D11240895991B7B
:1034500079E004C0991F961708F0961B881F7A958B
:10346000C9F78095089597FB072E16F4009407D0AE
:1034700077FD09D00E947A1A07FC05D03EF490959A
:1034800081959F4F0895709561957F4F0895A1E2B2
:103490001A2EAA1BBB1BFD010DC0AA1FBB1FEE1FCE
:1034A000FF1FA217B307E407F50720F0A21BB30B19
:1034B000E40BF50B661F771F881F991F1A9469F795
:1034C00060957095809590959B01AC01BD01CF01F1
:1034D0000895EE0FFF1F0590F491E02D19940E94BE
:1034E000921AA59F900DB49F900DA49F800D911DE1
:1034F00011240895AA1BBB1B51E107C0AA1FBB1FC3
:10350000A617B70710F0A61BB70B881F991F5A956F
:10351000A9F780959095BC01CD0108950790F6918B
:10352000E02D1994A29FB001B39FC001A39F700D1D
:10353000811D1124911DB29F700D811D1124911DBB
:103540000895FB01DC0102C001900D9241505040F2
:08355000D8F70895F894FFCFAD
:10355800010000000000290C80007374645F6D7323
:1035680067732F54696D6500636437313636633786
:10357800346335353263333131666263633266658D
:10358800356137626332383900726F7373657269F7
:10359800616C5F6D7367732F546F706963496E66F2
:1035A8006F003061643531663838666334343839D1
:1035B800326638633130363834303737363436305F
:1035C800303500726F7373657269616C5F6D736714
:1035D800732F4C6F67003131616264373331633266
:1035E80035393333323631636436313833626431D6
:1035F800326436323935003966306539386264618B
:103608003635393831393836646466353361666140
:10361800376134306534390067656F6D6574727968
:103628005F6D7367732F566563746F72330034610F
:103638003834326236356634313330383464633284
:103648006231306662343834656137663137006715
:10365800656F6D657472795F6D7367732F547769E1
:103668007374003966313935663838313234366624
:103678006466613237393864316433656562636121
:10368800383461004D6573736167652066726F6DCC
:10369800206465766963652064726F707065643A4A
:1036A800206D657373616765206C61726765722050
:1036B8007468616E206275666665722E00636D645B
:1036C8005F76656C00726F7373657269616C5F6DAC
:1036D8007367732F52657175657374506172616D8C
:1036E8000000000000AD01CF011502180200000023
:1036F8000064031B02F302F60200000000EC03F969
:10370800023D034003000000001804C204430346BE
:1037180003000000007707550849034C0300000028
:1037280000A7077F084F03520300000000D6051EBC
:103738000B5F03000000009B08550359035C03005E
:1037480000000076147D181C1449142E146B140004
:00000001FF
